S01700004763634170706C69636174696F6E312E737265635B
S11300000C942A000C9458020C9403020C9447009C
S11300100C9447000C9447000C9447000C94470040
S11300200C9447000C9447000C9447000C94470030
S11300300C9447000C9447000C9447000C94470020
S11300400C9447000C9447000C9447000C94470010
S11300500C94470011241FBECFE5D8E0DEBFCDBF0E
S113006010E0A0E6B0E0E6E9F5E002C005900D92EC
S1130070AE3AB107D9F720E0AEEAB0E001C01D9274
S1130080A03BB207E1F70E94A3020C94C9020C94AE
S1130090000002C0959587956A95E2F7BC016170EE
S11300A07727862F972F0895813419F0833439F5F3
S11300B013C08AB31ABA4BB321E030E0C901062E4B
S11300C002C0880F991F0A94E2F7842B8BBB89B373
S11300D090E00E944900089584B314BA45B321E026
S11300E030E0C901062E02C0880F991F0A94E2F776
S11300F0842B85BB83B390E00E9449000895089542
S1130100809362000895CF93DF9380936300C0E0EF
S1130110D0E0BE01809163000E9478012196C8302E
S1130120D105B9F7DF91CF91089590936100809341
S11301306000BC01809162000E9478010895909350
S1130140AF008093AE00BC01809162000E947801F0
S1130150089590916300923459F018F4913469F43D
S113016005C0933439F0943441F406C08BBB05C008
S113017088BB03C085BB01C082BB6091AE00709197
S1130180AF00809162000E94C00160916000709194
S11301906100809162000E9478018FE39FE10197E2
S11301A0F1F700C000006091AE007091AF00809143
S11301B062000E9478018FE39CE90197F1F700C087
S11301C00000089590916300923459F018F491342A
S11301D069F405C0933439F0943441F406C08BBB00
S11301E005C088BB03C085BB01C082BB6091AE0063
S11301F07091AF00809162000E94C0016091600024
S113020070916100809162000E94C0018FE39FE1C0
S11302100197F1F700C000006091AE007091AF004B
S1130220809162000E9478018FE39CE90197F1F7C5
S113023000C00000089581E00E94A900089580E8AC
S11302400E94A900089580EC0E94A9000895FF92DD
S11302500F931F93CF93DF93F62E8A01E9010E9437
S113026080008F2D0E948300C8010E949500CE015A
S11302700E949F008FE30E94A90082E00E94A900CF
S11302808EE00E94A9000E941B012FEF89E698E1ED
S1130290215080409040E1F700C00000DF91CF91F1
S11302A01F910F91FF9008950F931F93CF93DF93A6
S11302B0EC01888181110FC016C00E94E200CF308A
S11302C0D10511F40E9423012196F80181918F0137
S11302D08111F3CF08C00E94E2008E010F5F1F4F0F
S11302E0C0E0D0E0F1CFDF91CF911F910F9108953D
S11302F08234C9F020F4813409F041C005C083344C
S113030009F18434E1F52DC02AB381E090E0AC0119
S113031002C0440F551F6A95E2F7BA01622B6ABB0B
S11303208BB31BBA089527B381E090E0AC0102C0FF
S1130330440F551F6A95E2F7BA01622B67BB88B375
S113034018BA089524B381E090E0AC0102C0440FD0
S1130350551F6A95E2F7BA01622B64BB85B315BADF
S1130360089521B381E090E0AC0102C0440F551F11
S11303706A95E2F7BA01622B61BB82B312BA08959F
S11303808234B9F018F48134E9F505C08334F9F006
S11303908434C1F52AC02AB381E090E001C0880FFB
S11303A06A95EAF7982F922B9ABB9BB3892B8BBB48
S11303B0089527B381E090E001C0880F6A95EAF7B9
S11303C0982F922B97BB98B3892B88BB089524B39D
S11303D081E090E001C0880F6A95EAF7982F922B8C
S11303E094BB95B3892B85BB089521B381E090E03C
S11303F001C0880F6A95EAF7982F922B91BB92B3AC
S1130400892B82BB08951F920F920FB60F9211246D
S11304102F933F934F935F936F937F938F939F9308
S1130420AF93BF93CF93DF93EF93FF9380916400D7
S113043090916500019761F467E070E083E40E94A5
S1130440C0011092650010926400C8E6D0E00DC0AF
S113045067E070E083E40E94780181E090E090938B
S1130460650080936400C2E7D0E00E941B010E94F3
S11304701F01CE010E9454012FEF89E698E121501B
S113048080409040E1F700C00000FF91EF91DF91C0
S1130490CF91BF91AF919F918F917F916F915F9118
S11304A04F913F912F910F900FBE0F901F90189571
S11304B01F920F920FB60F9211242F933F934F93D5
S11304C05F936F937F938F939F93AF93BF93CF93D8
S11304D0DF93EF93FF938091660090916700892BDF
S11304E049F481E090E09093670080936600CDE743
S11304F0D0E006C01092670010926600C7E8D0E012
S11305000E941B010E941F01CE010E9454012FEF83
S113051089E698E1215080409040E1F700C0000056
S1130520FF91EF91DF91CF91BF91AF919F918F9107
S11305307F916F915F914F913F912F910F900FBEDB
S11305400F901F90189520E030E041E050E061E406
S113055082E40E94270182E990E00E94540111BACA
S11305608FEF82BB80EC8BBF83E085BF8CE085BFBF
S1130570789460E070E083E40E945400892BC9F70A
S11305800E941B010E941F0181EA90E00E94540115
S1090590F0CFF894FFCF48
S11305960100424101000100416C61726D61204F0E
S11305A64E00416C61726D61204F4646004D4F54BA
S11305B64F52204F4646004D4F544F52204F4E2027
S11305C62100436F6E74726F6C20416C61726D61B1
S11105D6004D6F746F7220506F726E69740066
S9030000FC
