S01700004763634170706C69636174696F6E312E737265635B
S11300000C942A000C9447000C9447000C9447006D
S11300100C9447000C9447000C9447000C94470040
S11300200C9447000C9447000C9447000C94470030
S11300300C9447000C9447000C9447000C94470020
S11300400C9447000C9447000C9447000C94470010
S11300500C94470011241FBECFE5D8E0DEBFCDBF0E
S113006010E0A0E6B0E0E2E4F4E002C005900D92F6
S1130070A038B107D9F720E0A0E8B0E001C01D9294
S1130080A238B207E1F70E9403020C941F020C94F9
S1130090000002C0959587956A95E2F7BC016170EE
S11300A07727862F972F0895813419F0833439F5F3
S11300B013C08AB31ABA4BB321E030E0C901062E4B
S11300C002C0880F991F0A94E2F7842B8BBB89B373
S11300D090E00E944900089584B314BA45B321E026
S11300E030E0C901062E02C0880F991F0A94E2F776
S11300F0842B85BB83B390E00E9449000895089542
S1130100809362000895CF93DF9380936300C0E0EF
S1130110D0E0BE01809163000E9478012196C8302E
S1130120D105B9F7DF91CF91089590936100809341
S11301306000BC01809162000E9478010895909350
S1130140810080938000BC01809162000E9478014C
S1130150089590916300923459F018F4913469F43D
S113016005C0933439F0943441F406C08BBB05C008
S113017088BB03C085BB01C082BB609180007091C5
S11301808100809162000E94C001609160007091C2
S11301906100809162000E9478018FE39FE10197E2
S11301A0F1F700C00000609180007091810080919F
S11301B062000E9478018FE39CE90197F1F700C087
S11301C00000089590916300923459F018F491342A
S11301D069F405C0933439F0943441F406C08BBB00
S11301E005C088BB03C085BB01C082BB6091800091
S11301F070918100809162000E94C0016091600052
S113020070916100809162000E94C0018FE39FE1C0
S11302100197F1F700C000006091800070918100A7
S1130220809162000E9478018FE39CE90197F1F7C5
S113023000C00000089581E00E94A900089580E8AC
S11302400E94A900089580EC0E94A9000895FF92DD
S11302500F931F93CF93DF93F62E8A01E9010E9437
S113026080008F2D0E948300C8010E949500CE015A
S11302700E949F008FE30E94A90082E00E94A900CF
S11302808EE00E94A9000E941B012FEF89E698E1ED
S1130290215080409040E1F700C00000DF91CF91F1
S11302A01F910F91FF9008950F931F93CF93DF93A6
S11302B0EC01888181110FC016C00E94E200CF308A
S11302C0D10511F40E9423012196F80181918F0137
S11302D08111F3CF08C00E94E2008E010F5F1F4F0F
S11302E0C0E0D0E0F1CFDF91CF911F910F9108953D
S11302F08234C9F020F4813409F041C005C083344C
S113030009F18434E1F52DC02AB381E090E0AC0119
S113031002C0440F551F6A95E2F7BA01622B6ABB0B
S11303208BB31BBA089527B381E090E0AC0102C0FF
S1130330440F551F6A95E2F7BA01622B67BB88B375
S113034018BA089524B381E090E0AC0102C0440FD0
S1130350551F6A95E2F7BA01622B64BB85B315BADF
S1130360089521B381E090E0AC0102C0440F551F11
S11303706A95E2F7BA01622B61BB82B312BA08959F
S11303808234B9F018F48134E9F505C08334F9F006
S11303908434C1F52AC02AB381E090E001C0880FFB
S11303A06A95EAF7982F922B9ABB9BB3892B8BBB48
S11303B0089527B381E090E001C0880F6A95EAF7B9
S11303C0982F922B97BB98B3892B88BB089524B39D
S11303D081E090E001C0880F6A95EAF7982F922B8C
S11303E094BB95B3892B85BB089521B381E090E03C
S11303F001C0880F6A95EAF7982F922B91BB92B3AC
S1130400892B82BB089520E030E041E050E061E4B4
S113041082E40E94270184E690E00E94540160E097
S113042070E083E40E945400892BC9F70E941B01E9
S11304300E941F0183E790E00E945401F0CFF894DA
S1050440FFCFE8
S113044201004241436F6E74726F6C20416C6172A1
S11304526D61004D6F746F7220506F726E6974001B
S9030000FC
